:100000000C945D000C9412030C94EB020C9485008C
:100010000C9485000C9485000C9485000C9485004C
:100020000C9485000C9485000C9485000C9485003C
:100030000C9485000C9485000C9485000C9485002C
:100040000C94A1020C9485000C946F020C9449024C
:100050000C9485000C9485000C9485000C9485000C
:100060000C9485000C9485000000000024002700FB
:100070002A0000000000250028002B0004040404CE
:100080000404040402020202020203030303030342
:10009000010204081020408001020408102001021F
:1000A00004081020000000080002010000030407FB
:1000B0000000000000000000500411241FBECFEF1C
:1000C000D8E0DEBFCDBF11E0A0E0B1E0E0EBFBE0A7
:1000D00002C005900D92AE31B107D9F721E0AEE133
:1000E000B1E001C01D92A63CB207E1F710E0CDE5FA
:1000F000D0E004C02197FE010E94D005CC35D10785
:10010000C9F70E9439030C94D6050C940000AF92F5
:10011000BF92CF92DF92EF92FF920F931F93CF93F4
:10012000DF936C017B018B01040F151FEB015E0156
:10013000AE18BF08C017D10759F06991D601ED91EB
:10014000FC910190F081E02DC6010995892B79F78A
:10015000C501DF91CF911F910F91FF90EF90DF903C
:10016000CF90BF90AF900895FC01538D448D252F03
:1001700030E0842F90E0821B930B541710F0CF9641
:10018000089501970895FC01918D828D981761F073
:10019000A28DAE0FBF2FB11D5D968C91928D9F5F8A
:1001A0009F73928F90E008958FEF9FEF0895FC0169
:1001B000918D828D981731F0828DE80FF11D858D1C
:1001C00090E008958FEF9FEF0895FC01918D228DAF
:1001D000892F90E0805C9F4F821B91098F73992734
:1001E000089589E291E00E94E50021E0892B09F45D
:1001F00020E0822F089580E090E0892B29F00E9472
:10020000F10081110C9400000895FC01A48DA80F49
:10021000B92FB11DA35ABF4F2C91848D90E0019648
:100220008F739927848FA689B7892C93A089B18968
:100230008C91837080648C93938D848D981306C009
:100240000288F389E02D80818F7D80830895EF926D
:10025000FF920F931F93CF93DF93EC0181E0888F80
:100260009B8D8C8D98131AC0E889F989808185FF50
:1002700015C09FB7F894EE89FF896083E889F989F2
:1002800080818370806480839FBF81E090E0DF91F4
:10029000CF911F910F91FF90EF900895F62E0B8D47
:1002A00010E00F5F1F4F0F731127E02E8C8D8E1102
:1002B0000CC00FB607FCFACFE889F989808185FF69
:1002C000F5CFCE010E940501F1CFEB8DEC0FFD2F94
:1002D000F11DE35AFF4FF0829FB7F8940B8FEA8924
:1002E000FB8980818062CFCFCF93DF93EC01888D33
:1002F0008823B9F0AA89BB89E889F9898C9185FDA1
:1003000003C0808186FD0DC00FB607FCF7CF8C912E
:1003100085FFF2CF808185FFEDCFCE010E940501E0
:10032000E9CFDF91CF91089590E0FC01EC55FF4FAC
:100330002491FC01E057FF4F3491FC01E458FF4F3A
:10034000E491EE23C9F0222339F0233001F1A8F41F
:10035000213019F1223029F1F0E0EE0FFF1FEE58A5
:10036000FF4FA591B4918FB7F894EC91611126C01D
:1003700030953E233C938FBF08952730A9F0283055
:10038000C9F0243049F7809180008F7D03C08091AF
:1003900080008F7780938000DFCF84B58F7784BD16
:1003A000DBCF84B58F7DFBCF8091B0008F778093BA
:1003B000B000D2CF8091B0008F7DF9CF3E2BDACF45
:1003C000CF93DF9390E0FC01E057FF4F24918458D6
:1003D0009F4FFC0184918823D1F090E0880F991FF2
:1003E000FC01E859FF4FA591B491FC01EE58FF4F75
:1003F000C591D49161110EC09FB7F8948C91E22FF2
:10040000E0958E238C932881E223E8839FBFDF91C0
:10041000CF9108958FB7F894EC91E22BEC938FBFB6
:10042000F6CF08956091270170912801072E000CE6
:10043000880B990B0E94B50422E536E449E151E4AA
:100440000E9419050E947D046230710548F0660F14
:10045000771F660F771F65507109CB010197F1F780
:1004600061E083E00E94940183E290E00197F1F75C
:1004700060E083E00C949401FC0101900020E9F716
:100480003197AF01481B590BBC0189E291E00C94F4
:1004900087001F920F920FB60F9211242F933F9354
:1004A0004F935F936F937F938F939F93AF93BF937C
:1004B000EF93FF9389E291E00E940501FF91EF9194
:1004C000BF91AF919F918F917F916F915F914F916C
:1004D0003F912F910F900FBE0F901F9018951F9274
:1004E0000F920FB60F9211242F938F939F93EF9338
:1004F000FF93E0913901F0913A018081E0913F0151
:10050000F091400182FD1BC09081809142018F5F7C
:100510008F7320914301821741F0E0914201F0E096
:10052000E75DFE4F958F80934201FF91EF919F9180
:100530008F912F910F900FBE0F901F901895808173
:10054000F4CF1F920F920FB60F9211242F933F9367
:100550008F939F93AF93BF93809123019091240138
:10056000A0912501B09126013091220123E0230FB3
:100570002D3758F50196A11DB11D209322018093BE
:10058000230190932401A0932501B093260180912B
:100590001E0190911F01A0912001B09121010196AF
:1005A000A11DB11D80931E0190931F01A0932001F6
:1005B000B0932101BF91AF919F918F913F912F9166
:1005C0000F900FBE0F901F90189526E8230F0296EC
:1005D000A11DB11DD2CF1F920F920FB60F92112401
:1005E0002F933F934F935F936F937F938F939F933B
:1005F000AF93BF93EF93FF93E0910201F09103015A
:100600000995FF91EF91BF91AF919F918F917F914C
:100610006F915F914F913F912F910F900FBE0F906F
:100620001F9018951F920F920FB60F9211242F93BF
:100630003F934F935F936F937F938F939F93AF936A
:10064000BF93EF93FF93E0910001F09101010995B1
:10065000FF91EF91BF91AF919F918F917F916F919A
:100660005F914F913F912F910F900FBE0F901F9070
:100670001895CF93DF93CDB7DEB7A1970FB6F89457
:10068000DEBF0FBECDBF789484B5826084BD84B5D3
:10069000816084BD85B5826085BD85B5816085BD7D
:1006A00080916E00816080936E0010928100809135
:1006B00081008260809381008091810081608093BD
:1006C0008100809180008160809380008091B100E2
:1006D00084608093B1008091B00081608093B0000D
:1006E00080917A00846080937A0080917A008260A1
:1006F00080937A0080917A00816080937A00809163
:100700007A00806880937A001092C100E0913901EC
:10071000F0913A0182E08083E0913501F091360159
:100720001082E0913701F09138018FEC80831092B4
:100730004101E0913D01F0913E0186E08083E0912E
:100740003B01F0913C01808180618083E0913B011D
:10075000F0913C01808188608083E0913B01F091C1
:100760003C01808180688083E0913B01F0913C01F5
:1007700080818F7D808386E191E00E943C028BE145
:1007800091E00E943C0261E08DE00E94E00160E0A7
:1007900082E00E94E00161E083E00E94E00182E1EA
:1007A00092E09093010180930001809169008C7F19
:1007B000816080936900E89A8AE0882E912CA12CB0
:1007C000B12C90E4792E00E010E0C0902701D09089
:1007D00028010D2C000CEE08FF08F7FE4BC06DE25F
:1007E00089E291E00E94270122273327A9012C19D1
:1007F0003D094E095F0919A2CE0181967C01CA010B
:10080000B901A50194010E94AE05605DF7016293F4
:100810007F01211531054105510589F7E114F104E6
:1008200019F0C7010E943C028BE191E00E943C025A
:1008300070927C0080917A00806480937A0080912D
:100840007A0086FDFCCF909178008091790089270D
:100850009827892790932801809327010115110576
:1008600009F4B3CF0E94F100882309F4AECF0E94AF
:100870000000ABCFA701960119A2CE0181967C01A1
:10088000CA01B901A50194010E94AE05605DF7019E
:1008900062937F01211531054105510589F7BECFCE
:1008A000E9E2F1E01382128288EE93E0A0E0B0E08A
:1008B00084839583A683B78388E091E091838083C6
:1008C00085EC90E09587848784EC90E09787868715
:1008D00080EC90E0918B808B81EC90E0938B828B0D
:1008E00082EC90E0958B848B86EC90E0978B868BE6
:1008F000118E128E138E148E08950E9484046894B3
:10090000B1110C94130508950E94F80488F09F57C4
:1009100098F0B92F9927B751B0F0E1F0660F771F23
:10092000881F991F1AF0BA95C9F714C0B13091F019
:100930000E941205B1E008950C941205672F782FDC
:100940008827B85F39F0B93FCCF3869577956795DE
:10095000B395D9F73EF490958095709561957F4F4A
:100960008F4F9F4F0895E89409C097FB3EF49095F0
:100970008095709561957F4F8F4F9F4F9923A9F078
:10098000F92F96E9BB279395F69587957795679507
:10099000B795F111F8CFFAF4BB0F11F460FF1BC04B
:1009A0006F5F7F4F8F4F9F4F16C0882311F096E9DE
:1009B00011C0772321F09EE8872F762F05C066238C
:1009C00071F096E8862F70E060E02AF09A95660F45
:1009D000771F881FDAF7880F9695879597F90895FE
:1009E00057FD9058440F551F59F05F3F71F04795E0
:1009F000880F97FB991F61F09F3F79F087950895C5
:100A0000121613061406551FF2CF4695F1DF08C0E3
:100A1000161617061806991FF1CF86957105610500
:100A200008940895E894BB2766277727CB0197F9A8
:100A300008950E942C050C949D050E948F0538F0A6
:100A40000E94960520F0952311F00C9486050C94D5
:100A50008C0511240C9413050E94F00470F3959FEB
:100A6000C1F3950F50E0551F629FF001729FBB27A5
:100A7000F00DB11D639FAA27F00DB11DAA1F649F41
:100A80006627B00DA11D661F829F2227B00DA11DF4
:100A9000621F739FB00DA11D621F839FA00D611D7A
:100AA000221F749F3327A00D611D231F849F600D9B
:100AB000211D822F762F6A2F11249F5750409AF0C4
:100AC000F1F088234AF0EE0FFF1FBB1F661F771F50
:100AD000881F91505040A9F79E3F510580F00C941B
:100AE00086050C9413055F3FE4F3983ED4F3869596
:100AF00077956795B795F795E7959F5FC1F7FE2BBB
:100B0000880F911D9695879597F9089597F99F6796
:100B100080E870E060E008959FEF80EC0895002485
:100B20000A941616170618060906089500240A9452
:100B300012161306140605060895092E0394000CD8
:100B400011F4882352F0BB0F40F4BF2B11F460FF67
:100B500004C06F5F7F4F8F4F9F4F0895A1E21A2E01
:100B6000AA1BBB1BFD010DC0AA1FBB1FEE1FFF1F51
:100B7000A217B307E407F50720F0A21BB30BE40BA1
:100B8000F50B661F771F881F991F1A9469F76095E8
:100B90007095809590959B01AC01BD01CF010895A2
:100BA000EE0FFF1F0590F491E02D0994F894FFCF0C
:100BB000110211020000000027018700B400740137
:0E0BC000E500C300D70074657374000D0A00D1
:00000001FF
